:020000040001F9
:10800000C0360020D5800100EF800100F180010022
:108010000000000000000000000000000000000060
:10802000000000000000000000000000F3800100DC
:108030000000000000000000F5800100F780010052
:10804000F9800100F9800100B98C0100F98001007C
:10805000F980010000000000F98001006D8A010034
:10806000F9800100F9800100F9800100F980010028
:10807000F9800100F9800100F9800100F980010018
:10808000F9800100F9800100F9800100F980010008
:10809000F9800100F9800100F9800100F9800100F8
:1080A000F9800100F98001000000000000000000DC
:1080B00000000000000000000000000000000000C0
:1080C0000348854600F09CFC0048004731990100B8
:1080D000C03600200321094802680A4302600848AC
:1080E00002680A4302600748804707480047FEE7E6
:1080F000FEE7FEE7FEE7FEE7FEE70000240500409E
:1081000054050040658C0100C180010003460B430B
:108110009B0703D009E008C9121F08C0042AFAD23D
:1081200003E00B780370401C491C521EF9D27047C3
:10813000F8B502464A40D40F42004B0052085B0893
:108140009A4202D20246084611464A0023D0C30D85
:108150004A00DDB2120EAD1A202D35DA4902012691
:10816000490AF6058A19002C00D0524220214F1BE3
:108170001146B9402A411018C20D9A4221D0002C54
:1081800017D0012D08DCDA05801AD20F8019D2072A
:10819000DBB200F0ECF9F8BDDA05801A01234000EB
:1081A0001B06C01880185A428018CA0F1043490095
:1081B00007E04908C2071143DA05801A8019400810
:1081C000801800F0CCF9F8BD61000122511A001BA3
:1081D000F7E70122D2075140AAE70122D207504017
:1081E000A6E7024670B54A40D30FDB0740002DD00A
:1081F0004A002AD0010E140E000212020919400A88
:10820000520A8418E50104465443000A120A2E0457
:108210005043A4194219200CC543AA18120C012579
:10822000AD03521C521912047F39240400D0521C91
:10823000104301D44000491EC2B20C06C0092018E8
:10824000401C4008802A02D003E0002070BD400896
:108250004000002900DA0020184370BD70B50246C6
:108260004A40D50F40004A00ED0740085208002858
:1082700014D0002A12D0C40DD30D41020120C00534
:108280005202490A520AE41A091812187D3491421E
:1082900001D3641C00E04900002C01DA002070BD0D
:1082A0000023914201D3891A034340084900002862
:1082B000F7D100290AD0914202D10121C90705E076
:1082C000914201D2012101E00121C943E005C0181A
:1082D000401900F044F970BD420005D04200120E72
:1082E00052428A4201DB00207047C90508187047D6
:1082F000F0B51FB488B00B9909980024484009993B
:10830000C00F490049080991C0070B990090490026
:1083100049080B9109990898A64608431CD00B9967
:108320000A98084318D0099801244000420D4800DB
:10833000410D099824050003000B204309900B9878
:108340000003000B20430B9050181C4940180022DA
:1083500001901446104605E0002001460DB0F0BD26
:10836000032801DA034600E003239C46C11A0AAE43
:108370000AE05F0008ADED5B4F00F75B7D4300272F
:10838000AA187C41491C5B1E6145F2DD410004AB2B
:108390005A522104120C0A43240C401C0828DFDB2B
:1083A000019802900099704601910090059B049AF3
:1083B0000799069800F021F9D0E700000DFCFFFFB7
:1083C000C217C10F504010B54018CA0796230021AC
:1083D00000F0CDF810BD410040020122400AD20554
:1083E000090E80187F2901DA00207047962903DCE6
:1083F0009622511AC840704796398840704700004D
:108400004A0009030123090B1B051943094B10B549
:10841000520D9A4201DA002010BD064B34339A42C5
:1084200003DC9A1A00F08AF810BD034951188840FD
:1084300010BD0000FF030000CDFBFFFFC20FD207FD
:10844000400040080BD0C10D0723DB01C9184002D2
:108450000905400A1143C208400711437047002034
:1084600001467047CB0FDB07490010B549080246AB
:108470000A4307D00A0D07240903E401090B121B64
:10848000002A01DC002010BDC900440F0C43C100CC
:10849000E018D205801800F062F810BD0122D20762
:1084A000002800DB101A002900DB511A88427047AF
:1084B00030B50B46014600202022012409E00D467C
:1084C000D5409D4205D31D469540491B2546954004
:1084D00040191546521E002DF1DC30BDF0B51FB419
:1084E0000646002082B005464024019100901BE022
:1084F000019922460F46304600F020F8049A059B69
:10850000801A994110D310461946224600F08AFA83
:10851000361A8F410197224601200021009F00F06A
:1085200081FA38184D4100902046641E0028DFDC97
:10853000019B00982946324607B0F0BD10B5202AAD
:1085400004DB0846203AD040002110BD0B46D34042
:10855000D0402024A21A91400843194610BD00299A
:1085600004DA401C490001D140084000704770B453
:108570000024050C05D11024000402D1002921D0CB
:108580001124050E01D100020834050F01D10001AC
:10859000241D850F01D18000A41C002801DB4000B0
:1085A000641C002908D020252E1B0D46F540A14053
:1085B00000D001212943084301061B1B000ADB1DD3
:1085C00002D5002070BC7047DB0518188018002900
:1085D000F8DA401C4900F5D170BC400840007047F3
:1085E00010B5002B08DA0024401C614192185B4151
:1085F0001A4301D14008400010BDF0B51FB482B04D
:1086000005460C0003D0084600F0E8FB02E000F04D
:10861000E5FB2030024600902146284600F002FA91
:10862000049B059A04460F4618431143084314D08F
:10863000184610431BD0009840210A1A1846059985
:10864000FFF77CFF05460E46009A0599049800F056
:10865000E9F9084305D0012004E02046394607B077
:10866000F0BD0020C11705430E432C43374300994A
:108670000E986305401A7905E40A00220C43FD0AAE
:108680000A3002D500200146E9E7010510196941C9
:108690000C9C0D9D00196941FFF7A2FFDFE7000068
:1086A000F0B507460846584087B0C00F0490480010
:1086B0000E46590040084908BC1A884105D2384680
:1086C00031461E4617460B460246580040081043E6
:1086D0004CD0300D039040055900400D490D0590D8
:1086E000401A0290402872DA18030121000B090594
:1086F0000843019004980092002805D00199524245
:108700000020884100920190029840210A1A0199A4
:10871000009800F087F905460C466B4607CB00F041
:1087200091F9C0197141039A0E0D0023D7175640D5
:108730001A467A40164344D0049A002A2DD0029A51
:10874000012A039A15DC1205C01A9141012636054B
:10875000001C7141D20F059ED20700930192029630
:108760002A462346FFF749FF07B0F0BD3846314699
:10877000FAE71605224A0F46B218C01AB74101217E
:108780000905001C4F4100187F4111461818794116
:10879000E20F10436D19644113E0E2076D081543C1
:1087A0006408C2071443039A01261205C01A9141B6
:1087B0003605001C7141CE07400830434908C018F7
:1087C00051412A462346FFF70BFFCDE7FFE7049808
:1087D00001224000C117121A00238B410498314630
:1087E000C417381AA141EEE730B40124E40763400E
:1087F00030BC55E730B40124E407614030BC4FE79A
:108800000000E0FFF0B50C465C4085B0E40FE407E3
:1088100003944C0000266408590094464908024617
:108820000296224321D062460A431ED06200570DB1
:108830004A000E032303550D012402462C4924054A
:10884000781B1B0B360B40182343264361460090D0
:108850001C46501AB44103D30098401C009002E01B
:10886000921800985B41002803DA0020014605B009
:10887000F0BD0020012109050746864611E0644647
:108880001D46141BB54106D36546521BB3417446C1
:1088900007430C43A646CD074008490828439218D1
:1088A0005B4105460D43EAD11046184313D060469C
:1088B000194650407140084306D06046101AB34133
:1088C00006D20122002306E000220123DB0702E09A
:1088D0000122D2435310009874460105381C6141AF
:1088E000029C039D00196941FFF77AFEBFE7000073
:1088F000FD030000FEB500231A461B1A8A4103DB64
:108900000020014603B0F0BD4A000D0301212D0BEC
:108910000905520D0D43D10702D100186D41521EB9
:108920005110FF31FF310131002704463E463846E1
:10893000009701910246012100200905FFF7FEFD85
:10894000C3197141F818324684468E464A41614641
:108950002846611A904104D36046241A9541764610
:108960001F46241900986D41401C00903428E1DD19
:10897000F91930467041091BA84103D20022D243A5
:10898000134601E00022134601980105381C71418D
:10899000FFF726FEB6E700004A0009030123090B92
:1089A0001B0519430A4B10B5520D9A4202DA0020FA
:1089B000014610BD064B34339A4203DC9A1AFFF786
:1089C000BDFD10BD034BD21800F02CF810BD000007
:1089D000FF030000CDFBFFFF10B5002904DB0124DD
:1089E000E40740428C412146002B04DB1C46012356
:1089F000DB075242A341994200D1904210BD0000D2
:108A0000064C0125064E05E0E36807CC2B430C3CE1
:108A100098471034B442F7D3FFF756FBACA10100DE
:108A2000CCA1010010B5202A04DB0146203A914078
:108A3000002010BD914020239C1A0346E3401943B7
:108A4000904010BD10B5202A06DBCB170846203A0F
:108A50001041C1170B4306E00B461341D0402024C0
:108A6000A21A91400843194610BD000070B51A487B
:108A700000260660194C20780125002802D0607875
:108A8000002825D116488068FFF79AFC2169FFF776
:108A9000A0FB6169134B8A00491C98506161402911
:108AA00009D3A069012806D125700220A0610B48D6
:108AB000103000F0DBFE6069802809D3A06902282D
:108AC00006D16570054866611030A56100F0CEFEE4
:108AD0000548056070BD00000071004000200020C6
:108AE000007500404820002000700040FFB593B0A2
:108AF000054650100F9016460C4604920120169918
:108B0000109088427EDC08461099401A5449800033
:108B100009580A915249383108580C90049840106D
:108B200008907F20C00503900020019067E0074671
:108B300046E0089838188000119028580E90B80028
:108B4000079028580B900E99FFF7F2FA06901198AB
:108B500020580D9007980D9920580990FFF7E8FAD2
:108B600005900E990B98FFF734FB0B900D9909981F
:108B7000FFF72FFB09900199FFF733FB0E90039944
:108B80000B98FFF72EFB0E99FFF723FB0146119878
:108B9000295001990B98FFF724FB0B900399099832
:108BA000FFF71FFB0B99FFF7C3FA014611982150FD
:108BB00007990698685007980599215004983F181E
:108BC000B742B6DB039F0C990198FFF70AFB0290AE
:108BD0000A990398FFF705FB0299FFF7FAFA039049
:108BE00038460C99FFF7FDFA07460A990198FFF7F6
:108BF000F8FA3946FFF79CFA01900098401C009063
:108C0000089900E007E0884291DB04984010049046
:108C10001098401C73E701200346012E12DC1BE074
:108C200083420FDA8100091F6F589A00BC466758CB
:108C3000121FBE46AF586F50A75867506746AF50D7
:108C40007746A7500F9901E0401A49108142FBDB9B
:108C500040185B1CB342E3DB012017B0F0BD0000FD
:108C6000F0A0010010B500F03FFE002805D00E492D
:108C70000C484860C8130D4988610D48018CC9B281
:108C800001290ED1818C09070BD1018D0906090F2D
:108C9000042906D1808D0006000F02D1054901206C
:108CA000886010BDDFFF07C000050040006C004079
:108CB000C00F00F000060040F0B53C4D012185B02A
:108CC0004902284601F02CF901270026384C0028DB
:108CD00023D0FF212531284601F01DF900281CD0A2
:108CE000FF2025302E508120324980008860607D31
:108CF000002800D16F600221684601702E49086883
:108D000008600390E17C68460172E0680190E674B7
:108D100006CC6846083C90471DE00421284601F037
:108D2000FFF8002817D0FF210931284601F0F3F899
:108D3000002810D001F0FCF8E07C217D88420AD1A7
:108D4000607D002800D16F6081201A498000886012
:108D5000207D01F003F9FF211D31284601F0DBF8E9
:108D600000280DD0A07C218A884202D901F038F970
:108D700006E0FF211D316E50002801D001F046F9B8
:108D8000FF214531284601F0C6F800280CD0FF200D
:108D900045302E50607D002800D02F60E07C0028F8
:108DA00002D0207D01F0DAF805B0F0BD00200040CF
:108DB000A82E002000230040802400400FB410B5EE
:108DC00003A9044B044A029800F0EEF810BC08BC5A
:108DD00004B01847DB9801003C2000202021020C41
:108DE00001D010211046020A01D0104608390209AC
:108DF00001D01046091F820801D01046891E420882
:108E000001D0881E7047081A704702E008C8121F78
:108E100008C1002AFAD170477047002001E001C163
:108E2000121F002AFBD170470149086070470000FB
:108E300044200020F0B51FB486B00998089A030DAD
:108E40000021024314D05148514A181850430514C8
:108E50001198012810981AD0281A401C00264D4F4E
:108E60004D49009601910490002812DA444211E025
:108E70001198012449A3012801D11098C1430698F3
:108E8000119A84600360C26041600BB0F0BD404243
:108E9000E4E70446210500203F4A001C51410391AC
:108EA000029012E0E00707D032463B460199009855
:108EB000FFF71EFA0191009032463B4610461946D4
:108EC000FFF716FA06460F466410002CEAD1049804
:108ED000039B0028029A0999089806DAFFF708FA16
:108EE000019B009AFFF704FA05E0FFF78BFC019B5A
:108EF000009AFFF787FC04460E460022284BFFF736
:108F00006BFD03D80020C043014607E00022254B3B
:108F100020463146FFF7C4FBFFF73EFD102409E071
:108F2000002C0ADB0A220023FFF7D8FA079B303215
:108F30001A55641E02460A43F2D11122641C079B93
:108F4000121B1C19119B012B03D0012308430ED1C6
:108F50000AE0084304D0112010900020119077E718
:108F60001098151A6D1E0BE01098824202DD002346
:108F70006D1C03E0824201DA00236D1E002BEED04F
:108F8000069811998260C16030C07EE701FCFFFF46
:108F9000104D0000000014400000F03F30000000C1
:108FA0000000F0430000E03FFFB597B00646002503
:108FB00018E2252877D100242746FD49049400E0D3
:108FC0000443761C32780120203A90400842F7D1C1
:108FD00030782A280ED0022230780146303909290B
:108FE00016D804990A235943303940181443761C83
:108FF0000490F1E7189802C804911890002904DA47
:109000000120400304434842049002200443761C9C
:1090100030782E2814D1042004437078761C2A2836
:1090200009D11898761C80C8189009E00A214F438E
:10903000303FC719761C3078014630390929F5D9F7
:1090400030786C2810D006DC4C281AD068280ED056
:109050006A2817D104E0742813D07A2812D110E0BE
:109060000120400504430CE00121090501E0032132
:1090700009050C437178814203D1012000052418B1
:10908000761C761C3078119066280BD013DC58289B
:109090007DD009DC00287BD04528F6D04628F4D0C6
:1090A00047281AD1A5E118E0632835D0642870D08C
:1090B000652812D19DE170286CD008DC6728F1D0BA
:1090C00069287BD06E280DD06F2806D1BAE07328AE
:1090D0002ED0752871D0782859D01A9A19999047AE
:1090E0006D1C7EE16002400F022809D003280DD0DC
:1090F0000428189801680DD00D60001D189070E1CB
:109100001898EA1701680D604A60F6E71898016838
:109110000D80F2E70D70F0E718986A460178117239
:10912000001D18900020507202A80090012005E058
:10913000189802C8189000200091C04361070DD50F
:10914000002101E00199491C0191B94212DA8142E2
:10915000F8DB009A515C0029F4D10BE0002101E01A
:109160000199491C01918142FADB019A0099895CBD
:109170000029F5D1019904981A9B471A21463846CF
:10918000199A00F097FA0199401945180BE04FE041
:109190002CE113E04EE0009800990078491C009102
:1091A0001A9A199990470198401E0190401CF2D1DB
:1091B000214638461A9B199A10E137E00A2000210F
:1091C000009001916002410F022907D0189A01CA4C
:1091D0001892C2179446032908D00AE01898C01DB7
:1091E000C108C90005C91891944607E000B2C2172A
:1091F0009446042902D140B2C1178C460022614630
:10920000944506DA0A460021404291418C462D21C0
:1092100002E0210504D52B216A461173012103E0E8
:10922000E10701D02021F7E7029155E00A200AE08A
:10923000102008E010200090002104200443019138
:10924000082703E008200021019100906002410FEF
:10925000022907D0189A01CA1892002294460329BD
:1092600008D008E01898C01DC108C90005C91891A8
:10927000944603E080B2042900D1C0B200210291DB
:10928000210729D51199702906D0009A1021019B38
:109290004A401A4305D00EE040216A46117301216D
:1092A00008E06146014306D030216A4611731199E6
:1092B000517302210291009A0821019B4A401A43EE
:1092C0000AD16146014301D1610705D530216A46C3
:1092D000117301217F1E02911199582904D035A1E3
:1092E0000E910DA90D910DE037A1F9E76146019BA3
:1092F000009AFFF7F3F80E9B8C469B5C0D9A521E6A
:109300000D92137061460143F0D10D9805A9081A1A
:1093100020300190600703D501200004844300E061
:1093200001270198874201DD381A00E000200199E9
:1093300000904118029809180498401A0490E0031C
:1093400006D421461A9B199A049800F0B3F94519DE
:10935000002706E003A81A9AC05D199990476D1C72
:109360007F1C02988742F5DBE0030CD521461A9B4F
:10937000199A049800F09EF9451904E01A9A3020D1
:10938000199990476D1C0099481E00900029F5DC42
:1093900008E00D980D990078491C0D911A9A1999B9
:1093A00090476D1C0199481E01900029F1DC63E192
:1093B00009280100303132333435363738396162AB
:1093C000636465660000000030313233343536376F
:1093D00038394142434445460000000000F05AF944
:1093E0004519761C3078002800D0E2E528461BB0ED
:1093F000F0BD600700D406271898C01DC108C90039
:1094000048680A680831C30FDB071891190001D0BA
:109410009CA108E0210501D59BA104E0E10701D052
:109420009AA100E09AA1430011985B081091652869
:109430000CD006DC452809D046281DD0472841D14C
:1094400041E0662818D067283CD13CE00021112F6C
:1094500001DB112000E0781C0191009008A911A8FF
:10946000FFF7E8FC139905910021119A15927F1CD2
:1094700012980197009150E00120C007039001204D
:10948000019008A9009711A8FFF7D4FC139A14992A
:1094900005920022119B009212981593059A019251
:1094A000002901D0104602E0791C40180190381ABA
:1094B00001D5019804E04042401E0090781C0190C4
:1094C000C01B029043E0012F00DA01270021112F79
:1094D00001DD112000E038460191009008A911A893
:1094E000FFF7A8FC13990591119A00211298159283
:1094F0000091019721070CD40599B94201DB01992C
:1095000000E00191012904DD159A491E515C3029C2
:1095100006D0B84201DA011D05DA0121029115E0F9
:109520000199491EEDE7002805DC009941180091DA
:109530000199091A03E0019A411C914200DD019151
:109540000099401A401C02900120C0070390200798
:1095500006D402990198814202DB0020C0430290A8
:1095600000206946C87707AF012103980337C90770
:10957000884224D0022011902B20129003980028BA
:109580000CDA404203902D20129007E00A21039844
:10959000FEF78EFF30317F1E039039701199481EFF
:1095A00011900029F2DC03980028EFD1791E12985F
:1095B00008703078202108404530BF1E387006A85A
:1095C000C01BC01D039010980078002800D0012017
:1095D000019941180298C0170918039809180498AE
:1095E000401A401E0490E00306D421461A9B199AA3
:1095F000049800F05FF8451910980078002803D00F
:109600001A9A199990476D1CE00324D521461A9B9C
:10961000199A049800F04EF845191CE000980028AB
:1096200007DB00990598884203DD1598405C19997D
:1096300001E0199930201A9A904700986D1C401C3F
:1096400000900298401E0290002804D11A9A2E2001
:10965000199990476D1C0199481E01900029DDDC85
:1096600005E038781A9A7F1C199990476D1C039968
:10967000481E03900029F4DC21461A9B199A04988D
:10968000ACE600002D0000002B00000020000000D0
:1096900000000000F8B5044600251E461746880461
:1096A00004D405E039462020B0476D1C641EF9D56E
:1096B0002846F8BDFFB50446002581B01E46C80304
:1096C00001D5302700E02027880404D505E038467E
:1096D0000399B0476D1C641EF9D5284605B0F0BD4E
:1096E0001CB50F4903C900900191684600F08AFA41
:1096F0000C4801214268C903FF231B029A4311430E
:109700004160012101600848416008480168090280
:10971000090A0207114301600549802008601CBD49
:10972000E8A00100007500400073004004E400E080
:1097300000E100E0BFF34F8F04490348C860BFF366
:109740004F8F00BFFDE700000400FA0500ED00E0C8
:1097500010B58268C368934203D000F0ABF80020D4
:1097600010BD052010BD002906D0002A02D0531ECE
:10977000134203D0092070470E2070470160838098
:1097800000218160C1600846704710B58268C368D7
:109790009A1A83889A4203D800F096F8002010BDE8
:1097A000042010BD70B50446224888B01E460D0046
:1097B00042601CD0A888296882B21F48FFF7D3FFF7
:1097C000002815D1A889A96882B21B481030FFF77C
:1097D000CAFF00280CD1202218496846FEF796FCE3
:1097E000A06806902079002804D0012103E007201A
:1097F00008B070BD002168460175067760790028C1
:1098000000D00E2069464875E0780290A078039059
:1098100020780190607800900949684600F052FA7B
:109820000028E5D100F000FB02480121801C00F077
:10983000A1FADDE734200020882E00206CA1010071
:1098400045A0010010B50446064801214470401CA3
:1098500000F0F6FA112803D121460348FFF795FFDF
:1098600010BD000034200020982E0020F8B50646D8
:1098700000250F4F00682C460090A0003858009932
:10988000FEF756FC2946FEF753FC641CE4B205467D
:10989000402CF2D30521C943FEF71EFD0146009876
:1098A000FEF746FC0021C943FEF716FD3060F8BD07
:1098B00048200020826883881A4003689A5C0A70F6
:1098C0008168491C81607047C26883881A400368B8
:1098D0009954C168491CC160704710B50446C0B2B4
:1098E000FFF7B0FF204610BD1048018CC9B2012916
:1098F00017D1818C090714D1018D09060A0F03D1F4
:10990000828D1206120F0ED0090F012903D1828D0C
:109910001206120F07D0032903D1808D0006000F15
:1099200001D000207047012070470000C00F00F0F8
:1099300088B0924A012410467830916FD26F8068C7
:10994000069005928E4800908E4802902002049165
:109950000390019403238C4A694604A8FFF722FF71
:10996000002803D000221146FFF7E4FEFFF7B8FEFF
:10997000864901200860824CA41E40BF20BF20BF42
:109980002078002802D1607800287DD02078002837
:1099900001D0002000E0012001907D4F00208200D6
:1099A0000021401C80B2B9504028F8D3019806230A
:1099B000010278484022081806467549FFF796F8D4
:1099C00000257348AF00C0590146FEF70AFC00901D
:1099D000F0590146FEF705FC0099FEF7A9FBFEF7DA
:1099E0002DFD00F0D9FAFEF73DFDF051FEF7F3FC36
:1099F0006A0069496D1CADB28852202DE1D3304612
:109A0000202100F0E5F8654AE08001465043C21786
:109A1000520E10184002000C20810290880030582D
:109A2000E061002500902F4628462562B900715854
:109A3000FEF77EFB7F1CBFB2202FF7D30099FEF705
:109A4000C8FB5749FEF70AFC564907462062884280
:109A500001DA65810CE039460098FEF7FFFBFEF75E
:109A6000EDFC0022504BFEF743FCFEF7C9FC608181
:109A7000A18902984E0002914749403188530098CD
:109A8000FEF7A9FC494900E06CE088533846FEF730
:109A9000A2FC474988534749608988534648874212
:109AA00003DA46490120885301E04448855302986F
:109AB000401C80B2A081FF2800D9A5810020E08150
:109AC0002063E062A06205460346024601466062EA
:109AD000314F6E004037BF5B6D1CFB18334FADB28A
:109AE000BF5BBA18324FBF5B7918324FBF5B381873
:109AF000324FBE5BE789F619E681FF2DE8D91B12CC
:109B00001212091263620012A262E1622063192834
:109B10000FDD04290DDD2A482A491818884208D289
:109B20000E20205E0F2804DDE078C82806D2401CF5
:109B300003E0E07800280AD0401EE070C0B264283C
:109B400005D90120207120490006C86005E00020E9
:109B5000207101201C4900068860019800280AD065
:109B6000002060702069FEF769FC02460B4617A0D2
:109B7000FFF724F901E700202070F3E7E8A00100D7
:109B800002200020482300202DA00100007000408A
:109B900048220020482000204824002050C3000014
:109BA0000000F841CDCCCC3D0000244088260020A8
:109BB00088280020882A00200000A040882C00204F
:109BC00043FDFFFFE30C00000005005025660A007E
:109BD000FEB50546006800260F46012400900CE003
:109BE000A000019028580099FEF758FC03D2019874
:109BF000264628580090641CA4B2BC42F0D33046DC
:109C0000FEBD000010B501788A074178920F490720
:109C1000C90E406811438207540E0C438103890F1B
:109C200003D00321090408400443002000F00AF88F
:109C300003494868FF22120210402043486010BDCB
:109C40000075004010B5064902024B68FF2424024B
:109C5000A3431A434A60002800D00120086010BDC9
:109C6000007500408207D30EFF229A408907090E33
:109C700010B5994000280BDA03071B0F083B9C081E
:109C80000C4BA400E318DC6994430C43DC6107E04F
:109C90008408094BA400E418236893430B43236012
:109CA000C106C90E012088400449086004490860C3
:109CB00010BD000000ED00E000E400E080E200E004
:109CC00000E100E0F3B50446244881B0807D00281F
:109CD00001D00820FEBD002C00D1214C206800F0EE
:109CE00010F92078012739461E4E8140B1600021CD
:109CF000606800F0FDF81C4DA0696862607D217D00
:109D00000843E86603CCE8606961207B083C0128D1
:109D10000ED10021A06800F0EBF8E06800F0F1F847
:109D2000207B39468140B160E168A068A960286164
:109D30000A4E0298706021693160002806D00C4AF2
:109D4000217F0A4850600220FFF78CFF0420286022
:109D50000020F074B074B7757075FEBDA82E002099
:109D60008CA1010000050050002500408000020089
:109D700000230040F8B5294DEA7C002A01D01120CB
:109D8000F8BDE974E86000202875687D002801D1DD
:109D900000F0F4F86868224C002805D081202149A1
:109DA000800048600020F8BDFF212531204600F0EA
:109DB000B2F80546FF210931204600F0ACF807460D
:109DC000FF214531204600F0A6F8064639463143CA
:109DD0002943E9D02846304306D100F0A9F80F48BE
:109DE000C17C007D8142DFD8FF21453100206050D9
:109DF000FF21253160500949002DC87401D003208E
:109E0000F8BD002E01D00F20F8BD497D01200029AA
:109E100001D02060C6E76060C4E70000A82E0020E3
:109E2000002000400023004010B5044C607D002855
:109E300003D100F0A3F80120607510BDA82E00200A
:109E4000F8B5204C0026A27C002A01D01120F8BDD4
:109E5000A174A060002020821B4DFF271D37E85110
:109E60000120A86000F0BCF86168002911D024E04E
:109E7000FF2701372946144800F04DF8002802D189
:109E8000208AB842F6D1208AB84203D000F0A8F860
:109E900000E03D46A07C218A8842E9D8218AC81F7B
:109EA000F9380CD0084F2946384600F034F800281D
:109EB000F9D00120F8600020A0743046F8BD0F26CC
:109EC000F9E70000A82E00200020004030B5520025
:109ED0000A439900039C0A432102049D0A43290472
:109EE0000A43024980004018026030BD000700505C
:109EF0001CB500220B46009211460192FFF7E6FFC7
:109F00001CBD1CB5002100910B4601220191114698
:109F1000FFF7DCFF1CBD4058002800D0012070472F
:109F20000322120280184068084000D001207047C8
:109F3000FF2107480931002242500648816906483E
:109F4000037DC268D154017D491C01757047000032
:109F50000020004000250040A82E00201FB501224F
:109F600069460A7008720448C16801910021C174F1
:109F700006C8684690471FBDA82E0020FF2205484E
:109F8000253200218150FF220932815001210160D8
:109F90007047000000200040F8B506460C46FEF76A
:109FA000A9FC051E0F4600D00120014349000B48C3
:109FB0004908411AC90F0DD0002E01D0012100E03F
:109FC00000210C4361004908401AC00F02D1012052
:109FD000FEF72AFF28463946F8BD00000000F07F52
:109FE000FF2107481D31002242500648028A81683D
:109FF000895C028A521C02820348C16170470000DA
:10A0000000200040A82E0020002500401FB50021A0
:10A010006A4611701072044882680192817406C801
:10A02000684690471FBD0000A82E002010B501789B
:10A03000022901D0012904D1002240681146FFF70E
:10A0400079FB10BD7CB50178254D01290AD0022984
:10A050002FD000292CD129462248FFF779FB002870
:10A060002ED031E0406801781E481038FFF78DFB94
:10A070001C4C103C002805D001216A46117001904B
:10A08000684608E0A068E168081A012805D10020A8
:10A0900069460870684669688847A068E168081AD8
:10A0A000A188884204D80E480121801CFFF762FE77
:10A0B0007CBD02216A461170C068019068460CE0C0
:10A0C00001210748FFF7BCFE06488168C068884246
:10A0D000EED10320694608706846696888477CBDF0
:10A0E00034200020982E0020000100000200000013
:10A0F000000080BF00000000F304353F5E836C3F2A
:10A10000BE147B3F6DC47E3F0FB17F3F43EC7F3F6A
:10A1100011FB7F3FC4FE7F3FB1FF7F3FECFF7F3FDE
:10A12000FBFF7F3FFFFF7F3F00000000000080BF7C
:10A13000F30435BF15EFC3BEC2C547BE36BDC8BDAB
:10A1400030FB48BDB00AC9BC900E49BC880FC9BBE2
:10A15000C60F49BBD50FC9BAD90F49BADA0FC9B969
:10A160000B09080A0100000000509D0009000000D2
:10A170000B0000000A0000000800000000000000C2
:10A180000000000000509D000300000009000000D6
:10A190000B0000000A0000000800000000000000A2
:10A1A0000000000000509D0003000000CCA1010051
:10A1B00000200020480000000A8E010014A20100C7
:10A1C00048200020781600001A8E010000000000D0
:10A1D00000000000000000000000000000002C4310
:10A1E000000000000100000000000000000000006E
:10A1F000000000000000000000000000000000005F
:10A200000000000000000000000000000024F40036
:04A21000000000004A
:04000005000180C1B5
:00000001FF
