:10000000100800200D150000DF0A0000130B00008F
:1000100000000000000000000000000000000000E0
:100020000000000000000000000000007B0C000049
:100030000000000000000000CF0D00006F10000065
:10004000BF100000A715000001120000B31500004A
:10005000E515000000000000E7150000E3010000C6
:10006000E9150000EB150000ED150000EF1500008C
:10007000F1150000F3150000F5150000F71500005C
:10008000F9150000FB150000FD150000FF1500002C
:1000900001160000031600000516000007160000F8
:1000A000091600000B160000000000000000000010
:1000B0000000000000000000000000000000000040
:1000C0000121C006C00E8140754801607047F0B53F
:1000D00040B2002821D5734B40B20207120F083AF4
:1000E0009208042462436F4C40B205072D0F083D6F
:1000F000AD08042675436459FF258607B60F082707
:100100007E43B540AC438901C9B28007800F082502
:1001100068438140214399501AE0634A40B2830802
:1001200004246343D258FF238407A40F08256C439B
:10013000A3409A438901C9B283079B0F08246343F4
:1001400099401143584A40B2800804235843115043
:10015000F0BD00B5C0B20102544A1268544B1340BE
:100160000B4352490B60C0B2002803D00120CF4995
:10017000086002E00020CD49086000BDCC4800685E
:100180007047CC49086070470120CB490860704730
:100190000020CA490860704770B504000025002699
:1001A0000CE0C748F6B2042171434058216800F0C2
:1001B000B1FB290000F0AEFB0500761CF6B2402E24
:1001C000EFDB28008521C90500F034FC050020681C
:1001D000290000F09FFB8021C90500F02BFC206066
:1001E00070BD80B5FFF7D4FFB6480078002803D073
:1001F000B5480078002837D1FFF7C0FF00F070FC49
:10020000B249096800F0BEFBAD49B14A1268042347
:100210005A438850AE480068401CAD490860AC485D
:10022000006840280CD3AB480068012808D10120A1
:10023000A44908700220A7490860A448FFF7ACFF52
:10024000A348006880280FD3A248006802280BD179
:1002500001209D49087000209D49086001209D49AA
:1002600008609A48FFF798FFFFF78EFF01BD00B5C1
:1002700083B0994803C86A4603C2083A684600F04A
:100280005EFC0120FFF765FF0120FFF77AFF0121E7
:100290000720FFF71CFF0720FFF712FF07BD000034
:1002A00000E100E01CED00E000E400E00475004027
:1002B000FF00FFFFFFB58DB00F9840100B900F9817
:1002C00006900120059005E00698401006900598DC
:1002D000401C059010980599884200DAA3E07F48F9
:1002E0001099059A891A0422514340580A907C4873
:1002F0001099059A891A042251434058099006988A
:1003000040100290FE2080050490002003900024FD
:1003100083E00298281801900D9804216943415800
:100320000D98019A04235A43805800F0F3FA08907C
:100330000E980421694341580E98019A04235A43A8
:10034000805800F0E7FA07900D980421694340585F
:100350000D99019A04235A43895800F013FB0600B3
:100360000E980421694340580E99019A04235A4378
:10037000895800F007FB07000498310000F012FCD8
:1003800000900398390000F00DFC0100009800F087
:10039000F9FA0D99019A04235A43885004983900B8
:1003A00000F000FC01000F000398310000F0FAFBA0
:1003B000390000F0AFFA0E99019A04235A4388508D
:1003C00008980D9904226A43885007980E990422D0
:1003D0006A43885006982D180F98854299DB049E31
:1003E00004990A9800F0DEFB05000399099800F0D3
:1003F000D9FB0100280000F0C5FA049003990A987F
:1004000000F0D0FB01000D000998310000F0CAFB9C
:10041000290000F07FFA0390641C0298844200DBFC
:1004200052E72500D8E701252C0005E0241A4010EA
:10043000A042FBDB24186D1C0F98854233DAA542DD
:100440002FDA681E0190601E02900D980299042216
:100450005143405808900E98029904225143405845
:1004600007900D9801990422514340580D99029A22
:1004700004235A4388500E9801990422514340584E
:100480000E99029A04235A43885008980D99019AAC
:1004900004235A43885007980E99019A04235A431B
:1004A00088500B98C4E7012011B0F0BD00750040E2
:1004B0000875004004730040007000400071004067
:1004C000100800208E1500208F1500200400002049
:1004D0006815002000000020DC1500006C140000EE
:1004E000A414000070B502000B0010680025012460
:1004F0000CE0A4B204216143515800F0ABFB04D2DC
:10050000A4B20420604310582500641C21001E0082
:1005100089B2B6B2B142ECD3280080B270BD0000FF
:10052000F8B5FFF7A4FEFFF72FFE02E0002099497F
:10053000087040BF20BF20BF96480078002803D134
:10054000D74800780028F4D092480078002801D0DD
:10055000002500E00125002006E00021D14A80B2FC
:1005600004234343D150401C80B24028F5DB0623CE
:100570004022CC49CC48EDB2802464006C43001981
:10058000FFF798FE00244AE0C748EDB280214900F9
:1005900069434618A4B2042161430091C248EDB2F8
:1005A0008021490069434018A4B2042161434058A6
:1005B000BD49EDB2802252006A438918A4B20422D8
:1005C0006243895800F0EEFA01000F00B548A4B26A
:1005D000042161434158B348A4B2042262438058C5
:1005E00000F0E0FA390000F095F900F047FB00F068
:1005F0005EFB00F0BBFB00997050AB48EDB2802170
:10060000490069434018A4B204216143405800F0F6
:10061000DFFBA649A4B2022262438852641CA4B242
:10062000202CB1DB2021A048EDB2802252006A4389
:100630008018FFF757FF9E4908809D4801889D4814
:100640004843402100F0F7FB022100F0F4FB9A49F7
:1006500008809548EDB280214900694340189449CB
:10066000098804224A43805894490860002094492C
:100670000860002410E0924800688B49EDB28022A7
:1006800052006A438918A4B204226243895800F0D8
:1006900041F98B490860641CA4B2202CEBDB88482C
:1006A00000688649096800F06DF9864900F0C2F9D2
:1006B0008349086082480068834900F0CBFA03D27E
:1006C0000020824908800FE07C4800687C49096866
:1006D00000F0B0F900F0D2FA00227D4B00F005FCEA
:1006E00000F0C6FC794908807348008879497A4A45
:1006F000128802235343C8527048006800F068FB18
:100700007649754A128802235343C8526C480068E0
:1007100000F05EFB7249704A128802235343C852AC
:100720006A4800886F496C4A128802235343C852B2
:10073000634800686C4900F08DFA07D201206B49CC
:10074000654A128802235343C85206E000206749D5
:10075000614A128802235343C8525F480088401CF4
:100760005D4908805C480088FF2802DD00205A4966
:10077000088000205E4908805D480021405E5D4998
:1007800008605D4908605D4908605D4908600020B7
:1007900035E000BF8E150020594909684D4A80B2E6
:1007A00002234343D25A8918554A116053490968B4
:1007B0004A4A80B202234343D25A89184F4A1160F1
:1007C0004D490968464A80B202234343D25A8918E8
:1007D000494A116047490968424A80B202234343AB
:1007E000D25A8918434A1160414909883F4A80B268
:1007F00002234343D25A89183D4A1180401C80B2DB
:10080000FF28C9DD3E48006800123D4908603B48AA
:1008100000680012394908603748006800123649FC
:1008200008603448006800123249086031480068A6
:100830001A2819DB30480068052815DB30480068A5
:100840003049401A304988420ED229480021405E82
:10085000102809DB2D480078C8280EDA2B480078CC
:10086000401C2A49087008E028480078002804D075
:1008700026480078401E25490870244800786528DD
:1008800003DB01202249087002E0002020490870A3
:10089000EDB2002D00D149E600200149087048E67C
:1008A0008F150020101400201008002010150020C3
:1008B0008415002050C30000861500206C15002010
:1008C000701500200000F841CDCCCC3D88150020EB
:1008D00000002440100A00208A150020100C00207F
:1008E000100E0020101000200000A0401012002068
:1008F0008C150020801500207C1500207815002024
:1009000074150020BD020000E30C000090150020CB
:10091000911500200122D20703004B402ED4431A28
:1009200001D2C01AC91830B44B180418240E1B0E7B
:1009300022D0FF2C20D0E31A182B1DDC0902114312
:10094000C40D641E0002104394461925ED1A0A00D6
:10095000AA40D940451801D36D08A41CE405D2096A
:10096000280A2D062A436546AA41604103181B0E3A
:10097000FF2B01D3C00DC00530BC7047514006E0CD
:100980005140CCE70122D20703004B40F8D4431A70
:1009900003D2C01AC9185040514030B44B18090254
:1009A00011430418240E1B0E40D0FF2C3AD0250012
:1009B0009D410BD31ED8C50D4002401A0BD3ED0547
:1009C0000100400AC90591416841D5E7C50D4002C3
:1009D0004918401AD0D001214008491C0018FCD504
:1009E0008C4204D36D1A000AED054019C4E7E805EE
:1009F0001040C1E7182DBFDCAC1C0D00E140E54103
:100A00004D40012D4941C40D00021043451A01D447
:100A10006D199543641EE405280A2D069541604131
:100A200030BC7047FF2BA7D1D843A5E72442A3D100
:100A30000020A1E730B405004D400122D207154047
:100A40004B180418240E28D01B0E2FD0FF2C34D0A6
:100A5000FF2B37D0E41A0002090210431143430868
:100A60004808D10D1B1A02D2641EDB181B18DB18B4
:100A7000834200D31B1A4941F9D37F3426DDFE2C73
:100A800008DAE4054808C907194391416041284341
:100A900030BC7047FF20C005F9E728001B0E03D0CB
:100AA000FF2BF5D14902F3D0D043F1E7FF2C01D160
:100AB0004002F9D1FF20C005E9E74002F4D1FF2B45
:100AC000F8D1F1E728004902E2D0EDE70B0200205F
:100AD0002442DCD15B129B1CD9D9D805D7E7FEE7AD
:100AE0009D21020008D5F446524200F005F801228B
:100AF000D2071043604700000AD002D4491E921862
:100B0000FCD5C905100A1206524100D3012A4841FA
:100B10007047FEE700B5C0B201021F4A12681F4BC2
:100B200013400B431C490B60C0B2002803D00120C6
:100B30001B49086002E000201949086000BD10B59B
:100B40000024220001788C07A40F1443220041786E
:100B500089001C240C401443220041684901602490
:100B60000C4014434168C02292020A40002A05D07A
:100B700021004068C024A40204400C430020FFF779
:100B8000C9FF05480068FF210902014021430248CE
:100B9000016010BD0000000004750040FF00FFFF71
:100BA0000075004030B405004D400122D2071540C9
:100BB0004B180418240E2ED01B0E32D0FF2C34D02C
:100BC000FF2B3AD0E4180002090210431143000A37
:100BD000090A9446C2B24A43000AC3B24B43000A10
:100BE0004843110A5B181A43D2B2190A091801D4F2
:100BF0004918641E080A7F3C23DBFE2C08DAE40552
:100C000009061143634699416041284330BC70474F
:100C1000FF20C005F9E728001B0EFF2BF6D1D043BB
:100C2000F4E72800FF2CF1D1F9E74002F7D1FF2BC0
:100C300001D14902F3D1E005E7E7D8054902E4D044
:100C4000EDE743020020641CDFD15B129B1CDCD962
:100C5000D805DAE70CB4012212060318DA4207D8E5
:100C60004B18DA4204D802000A43921802D2884292
:100C70000CBC7047FCD08142FAE7FEE70122120665
:100C80000118CA420AD28A420DD83822120609092E
:100C90008918C20FD20711434007704700D0490896
:100CA0000909014301E0C10FC90700207047012273
:100CB00052054B1850D2D3424DD25B0D4BD030B4BD
:100CC0001C05A14355082943D40AE41E1B195B08DF
:100CD00001D3001849411B059C466C19091B0018DB
:100CE000494100184941641900239202491B07D465
:100CF0006D081DD2091B641900184941491BF7D51D
:100D00006D080AD20919641B00184941491BEFD527
:100D10006D08F7D301E0520817D0C01861419B1A43
:100D2000AC4100184941801AA941F4D452080AD0B4
:100D3000C01AA1419B186C4100184941801AA94171
:100D4000E9D45208F4D15B1C6C415808E207104307
:100D50006108614430BC70470020590DFBD0C94385
:100D6000D342F8D802B500F0ABF902BD012252051A
:100D70004B18DA4201D9581570475B0D0722D20192
:100D80009B1A10D9FF2B1DD2DB050122D2070A4086
:100D900013430903020D1143490AC200524100D90D
:100DA000491CC81870470AD1800A0A03024352122C
:100DB000921C04D9D3070B40D00518437047C80FC5
:100DC000C0077047C80F0002FF30C0057047FEE73C
:100DD0000122D2070118090E7F3910D449421F3170
:100DE0000FD4001805D2C0011043C84000D5D0432D
:100DF0007047C0011043C84005D4404270470020EE
:100E000070470042F3D510007047F446002804D420
:100E1000494200F013F8404260474042002905D49F
:100E20005FD000F00BF8404249426047494200F071
:100E300005F84942604703460B43E6D40022030A03
:100E40008B420BD203098B4219D243088B422ED21C
:100E5000411A00D20146524110467047FF22090252
:100E60003FD012068B4205D3121209028B4201D3E6
:100E70001212090203098B4219D300E0090AC309BF
:100E80008B4201D3CB01C01A524183098B4201D35B
:100E90008B01C01A524143098B4201D34B01C01A46
:100EA000524103098B4201D30B01C01A5241C308BE
:100EB0008B4201D3CB00C01A524183088B4201D32D
:100EC0008B00C01A524143088B4201D34B00C01A19
:100ED0005241884200D3401A5241CFD201461046B7
:100EE000704708B5C046C04608BDF0B50E005E406C
:100EF0000125ED072E40B446AE0ADF184C18F44227
:100F000008D2F7420ED2640D01D07F0D12D100201D
:100F10006146F0BD05D1F74201D87F0D05D1002013
:100F2000C143F0BDFBD1640DF9D00020C143490598
:100F300049088FE0E419C902DB0229432B43DB0A8D
:100F4000460DC00231438E4630B487B295B27D4320
:100F50002E0CADB2140C7C43A419260C240425439A
:100F60009CB27C43A419190C7943270CC919A4B26B
:100F70000F043C43090C000C97B247432E0CBE19DA
:100F80003543ADB2170C4743360CBF19A6B2BF1993
:100F90003E043543240C3E0C36199FB24743BF191B
:100FA000BCB23E0C89191F0C47437F183E043443E2
:100FB000390C704680B297B247432E0CBE193543A8
:100FC000ADB2170C4743360CBF19A6B2BF193E0489
:100FD0003543240C3E0C36199FB24743BF19BCB2AF
:100FE0003E0C89191F0C47437F183E043443390CCB
:100FF00077463F0C90B278432E0C80190604ADB2B0
:101000002E43050CA0B22D18120C7A435019020C75
:1010100080B2240CA4189AB27A4312191404204303
:10102000120C89181B0C7B43C91830BCEF0A3942DB
:1010300003D1B61940414941641E6F12BF0DE41B34
:101040000BDBFF19BC4211DA240500274208AE4130
:101050007841614166463143F0BD641C05D1401CB6
:101060006141CF0201D34908F4E750E75DE7FEE7AD
:10107000F4464A1805D200F00DF801D58017400853
:10108000604700F007F80121C907884200D908002D
:1010900040426047400DC90208430121C907084387
:1010A000520D40210901521A521C06D452421F32DD
:1010B00001D4D0407047C017704700207047FEE74A
:1010C0001FB500F003F8212101601FBD80B5024863
:1010D000C046C04602BD00000C000020002209B23C
:1010E0004250704700B509B24058002801D0012095
:1010F00000E00020C0B200BD00B5C12292008058BF
:101100000140002901D0012000E00020C0B200BD54
:10111000C22292008150704701009020C000085800
:101120009022D20088507047A321C9004058C0B215
:101130007047C9B2184A815070470122C9B2425063
:10114000704780B58E2149002C48FFF7C7FF29481A
:1011500080682849098A415C2648008A401C254A43
:101160001082C9B22548FFF7E4FF01BD10B5842104
:1011700049000A48FFF7B2FF1F48047D0748FFF700
:10118000D3FF1D49C968E4B208551B48007D401CC7
:101190001949087510BD00001C0500000020004022
:1011A00000B585B001216A46117069460872114880
:1011B000C068019000200F49C8740E480168684655
:1011C0000C4A5268904705B000BD00B585B00021BB
:1011D0006A461170694608720748806801900020CD
:1011E00005498874044801686846034A5268904774
:1011F00005B000BD50150020501500200020004013
:1012000000B585B0802189004B48FFF775FF0028A5
:1012100030D0922149004848FFF764FF002829D0C8
:10122000922149004448FFF759FF81218900424833
:10123000FFF76EFF4148407D002803D104213E485E
:10124000FFF77BFF0220694608703B48FFF764FF09
:1012500003903A48C07C694608723848C0680190DB
:1012600000203649C874354801686846334A5268D8
:10127000904725E004213048FFF73EFF00281FD0AB
:10128000842149002C48FFF72DFF002818D0FFF7D4
:101290006DFF2A48C07C2949097D884210D1274822
:1012A000407D002803D104212348FFF746FF812118
:1012B00089002148FFF72CFF2048007DFFF770FFD1
:1012C0008E2149001C48FFF70DFF002816D01B484F
:1012D000008A1A49897C89B2884202D2FFF731FF1D
:1012E0000CE08E2149001448FFF7F8FE1348807C7B
:1012F000002803D01148807CFFF767FFA221490036
:101300000D48FFF7EFFE002814D0A22149000A483B
:10131000FFF7E4FE0948407D002803D0002106487D
:10132000FFF70BFF0548C07C002803D00348007D71
:10133000FFF736FF05B000BD00200040501500202B
:1013400080B500F011F8002806D031483149086016
:10135000802000023049086000F03EF8002802D0EA
:1013600001202E49086001BD00B52D480078C0B2AB
:1013700001282FD12B4800780007000F002829D121
:1013800029480078F0210140002907D1274800783A
:10139000F0210140002901D101201CE02248007801
:1013A000F0210140102907D120480078F0210140A8
:1013B000002901D101200EE01B480078F0210140F6
:1013C000302907D119480078F0210140002901D1C6
:1013D000012000E0002000BD00B511480078C0B237
:1013E000012813D10F4800780007000F00280DD105
:1013F0000D480078F0210140402907D10B480078C2
:10140000F0210140002901D1012000E0002000BDB1
:10141000DFFF07C004050040186C004008060040CC
:10142000E00F00F0E40F00F0E80F00F0EC0F00F028
:1014300070B40121002213E00468001D0C4202D0A8
:101440004D466D1E64192260241D1B1F042BFAD209
:1014500025009E0701D52280AD1C0B4000D02A70CC
:101460000368001D002BE7D170BC7047000080BFEF
:1014700000000000F304353F5E836C3FBE147B3FE9
:101480006DC47E3F0FB17F3F43EC7F3F11FB7F3F39
:10149000C4FE7F3FB1FF7F3FECFF7F3FFBFF7F3FFD
:1014A000FFFF7F3F00000000000080BFF30435BF56
:1014B00015EFC3BEC2C547BE36BDC8BD30FB48BD73
:1014C000B00AC9BC900E49BC880FC9BBC60F49BB46
:1014D000D50FC9BAD90F49BADA0FC9B930B4012149
:1014E0000268001D002A0FD00368C3184468083042
:1014F0000C4202D04D466D1E64191D6825601B1DEF
:10150000241D121FECD0F8E730BC704703210648B9
:1015100002680A430260054802680A430260044800
:10152000804704480047000024050040540500405F
:1015300041130000D115000010B507497944183156
:10154000064C7C44163404E0081D0A688918884754
:101550000100A142F8D110BD0800000028000000E1
:10156000D1FEFFFF840D00001008002000000000E5
:101570006DFFFFFF10000000480000000000002089
:10158000000000000120C046002801D0FFF7D4FF72
:10159000002000BF00BFFEF7C3FF00F000F880B5D9
:1015A00000F002F801BDFEE70746384600F002F8F9
:1015B000FBE7FEE72021090326311820ABBEF9E73F
:1015C0000100000000002C430024F4000000000093
:1015D00000BF00BF00BF00BFFFF7D4FF0001000045
:1015E00002000000FEE7FEE7FEE7FEE7FEE7FEE79B
:1015F000FEE7FEE7FEE7FEE7FEE7FEE7FEE7FEE7C3
:0C160000FEE7FEE7FEE7FEE7FEE7FEE780
:04000005000015D111
:00000001FF
